{
  "contractName": "Land",
  "abi": [
    {
      "anonymous": false,
      "inputs": [
        {
          "indexed": true,
          "internalType": "uint256",
          "name": "_landId",
          "type": "uint256"
        }
      ],
      "name": "AddingLand",
      "type": "event"
    },
    {
      "anonymous": false,
      "inputs": [
        {
          "indexed": true,
          "internalType": "uint256",
          "name": "landId",
          "type": "uint256"
        },
        {
          "indexed": true,
          "internalType": "address",
          "name": "seller",
          "type": "address"
        },
        {
          "indexed": true,
          "internalType": "address",
          "name": "buyer",
          "type": "address"
        }
      ],
      "name": "LandOwnershipTransferred",
      "type": "event"
    },
    {
      "anonymous": false,
      "inputs": [
        {
          "indexed": false,
          "internalType": "address",
          "name": "_sellerId",
          "type": "address"
        }
      ],
      "name": "Landrequested",
      "type": "event"
    },
    {
      "anonymous": false,
      "inputs": [
        {
          "indexed": false,
          "internalType": "address",
          "name": "_registrationId",
          "type": "address"
        }
      ],
      "name": "Registration",
      "type": "event"
    },
    {
      "anonymous": false,
      "inputs": [
        {
          "indexed": false,
          "internalType": "address",
          "name": "_buyerId",
          "type": "address"
        }
      ],
      "name": "requestApproved",
      "type": "event"
    },
    {
      "constant": true,
      "inputs": [
        {
          "internalType": "address",
          "name": "",
          "type": "address"
        }
      ],
      "name": "BuyerMapping",
      "outputs": [
        {
          "internalType": "address",
          "name": "id",
          "type": "address"
        },
        {
          "internalType": "string",
          "name": "name",
          "type": "string"
        },
        {
          "internalType": "uint256",
          "name": "age",
          "type": "uint256"
        },
        {
          "internalType": "string",
          "name": "city",
          "type": "string"
        },
        {
          "internalType": "string",
          "name": "HKID",
          "type": "string"
        },
        {
          "internalType": "string",
          "name": "email",
          "type": "string"
        }
      ],
      "payable": false,
      "stateMutability": "view",
      "type": "function"
    },
    {
      "constant": true,
      "inputs": [
        {
          "internalType": "uint256",
          "name": "",
          "type": "uint256"
        }
      ],
      "name": "LandOwner",
      "outputs": [
        {
          "internalType": "address",
          "name": "",
          "type": "address"
        }
      ],
      "payable": false,
      "stateMutability": "view",
      "type": "function"
    },
    {
      "constant": true,
      "inputs": [
        {
          "internalType": "uint256",
          "name": "",
          "type": "uint256"
        }
      ],
      "name": "PaymentReceived",
      "outputs": [
        {
          "internalType": "bool",
          "name": "",
          "type": "bool"
        }
      ],
      "payable": false,
      "stateMutability": "view",
      "type": "function"
    },
    {
      "constant": true,
      "inputs": [
        {
          "internalType": "address",
          "name": "",
          "type": "address"
        }
      ],
      "name": "RegisteredAddressMapping",
      "outputs": [
        {
          "internalType": "bool",
          "name": "",
          "type": "bool"
        }
      ],
      "payable": false,
      "stateMutability": "view",
      "type": "function"
    },
    {
      "constant": true,
      "inputs": [
        {
          "internalType": "address",
          "name": "",
          "type": "address"
        }
      ],
      "name": "RegisteredBuyerMapping",
      "outputs": [
        {
          "internalType": "bool",
          "name": "",
          "type": "bool"
        }
      ],
      "payable": false,
      "stateMutability": "view",
      "type": "function"
    },
    {
      "constant": true,
      "inputs": [
        {
          "internalType": "address",
          "name": "",
          "type": "address"
        }
      ],
      "name": "RegisteredSellerMapping",
      "outputs": [
        {
          "internalType": "bool",
          "name": "",
          "type": "bool"
        }
      ],
      "payable": false,
      "stateMutability": "view",
      "type": "function"
    },
    {
      "constant": true,
      "inputs": [
        {
          "internalType": "uint256",
          "name": "",
          "type": "uint256"
        }
      ],
      "name": "RequestStatus",
      "outputs": [
        {
          "internalType": "bool",
          "name": "",
          "type": "bool"
        }
      ],
      "payable": false,
      "stateMutability": "view",
      "type": "function"
    },
    {
      "constant": true,
      "inputs": [
        {
          "internalType": "uint256",
          "name": "",
          "type": "uint256"
        }
      ],
      "name": "RequestedLands",
      "outputs": [
        {
          "internalType": "bool",
          "name": "",
          "type": "bool"
        }
      ],
      "payable": false,
      "stateMutability": "view",
      "type": "function"
    },
    {
      "constant": true,
      "inputs": [
        {
          "internalType": "uint256",
          "name": "",
          "type": "uint256"
        }
      ],
      "name": "RequestsMapping",
      "outputs": [
        {
          "internalType": "uint256",
          "name": "reqId",
          "type": "uint256"
        },
        {
          "internalType": "address",
          "name": "sellerId",
          "type": "address"
        },
        {
          "internalType": "address",
          "name": "buyerId",
          "type": "address"
        },
        {
          "internalType": "uint256",
          "name": "landId",
          "type": "uint256"
        }
      ],
      "payable": false,
      "stateMutability": "view",
      "type": "function"
    },
    {
      "constant": true,
      "inputs": [
        {
          "internalType": "address",
          "name": "",
          "type": "address"
        }
      ],
      "name": "SellerMapping",
      "outputs": [
        {
          "internalType": "address",
          "name": "id",
          "type": "address"
        },
        {
          "internalType": "string",
          "name": "name",
          "type": "string"
        },
        {
          "internalType": "uint256",
          "name": "age",
          "type": "uint256"
        },
        {
          "internalType": "string",
          "name": "HKID",
          "type": "string"
        }
      ],
      "payable": false,
      "stateMutability": "view",
      "type": "function"
    },
    {
      "constant": true,
      "inputs": [
        {
          "internalType": "uint256",
          "name": "",
          "type": "uint256"
        }
      ],
      "name": "buyers",
      "outputs": [
        {
          "internalType": "address",
          "name": "",
          "type": "address"
        }
      ],
      "payable": false,
      "stateMutability": "view",
      "type": "function"
    },
    {
      "constant": true,
      "inputs": [],
      "name": "buyersCount",
      "outputs": [
        {
          "internalType": "uint256",
          "name": "",
          "type": "uint256"
        }
      ],
      "payable": false,
      "stateMutability": "view",
      "type": "function"
    },
    {
      "constant": true,
      "inputs": [
        {
          "internalType": "uint256",
          "name": "",
          "type": "uint256"
        }
      ],
      "name": "lands",
      "outputs": [
        {
          "internalType": "uint256",
          "name": "id",
          "type": "uint256"
        },
        {
          "internalType": "string",
          "name": "landAddress",
          "type": "string"
        },
        {
          "internalType": "string",
          "name": "area",
          "type": "string"
        },
        {
          "internalType": "string",
          "name": "city",
          "type": "string"
        },
        {
          "internalType": "string",
          "name": "district",
          "type": "string"
        },
        {
          "internalType": "string",
          "name": "country",
          "type": "string"
        },
        {
          "internalType": "uint256",
          "name": "landPrice",
          "type": "uint256"
        },
        {
          "internalType": "string",
          "name": "propertyID",
          "type": "string"
        }
      ],
      "payable": false,
      "stateMutability": "view",
      "type": "function"
    },
    {
      "constant": true,
      "inputs": [],
      "name": "landsCount",
      "outputs": [
        {
          "internalType": "uint256",
          "name": "",
          "type": "uint256"
        }
      ],
      "payable": false,
      "stateMutability": "view",
      "type": "function"
    },
    {
      "constant": true,
      "inputs": [],
      "name": "requestsCount",
      "outputs": [
        {
          "internalType": "uint256",
          "name": "",
          "type": "uint256"
        }
      ],
      "payable": false,
      "stateMutability": "view",
      "type": "function"
    },
    {
      "constant": true,
      "inputs": [
        {
          "internalType": "uint256",
          "name": "",
          "type": "uint256"
        }
      ],
      "name": "sellers",
      "outputs": [
        {
          "internalType": "address",
          "name": "",
          "type": "address"
        }
      ],
      "payable": false,
      "stateMutability": "view",
      "type": "function"
    },
    {
      "constant": true,
      "inputs": [],
      "name": "sellersCount",
      "outputs": [
        {
          "internalType": "uint256",
          "name": "",
          "type": "uint256"
        }
      ],
      "payable": false,
      "stateMutability": "view",
      "type": "function"
    },
    {
      "constant": true,
      "inputs": [],
      "name": "getLandsCount",
      "outputs": [
        {
          "internalType": "uint256",
          "name": "",
          "type": "uint256"
        }
      ],
      "payable": false,
      "stateMutability": "view",
      "type": "function"
    },
    {
      "constant": true,
      "inputs": [],
      "name": "getBuyersCount",
      "outputs": [
        {
          "internalType": "uint256",
          "name": "",
          "type": "uint256"
        }
      ],
      "payable": false,
      "stateMutability": "view",
      "type": "function"
    },
    {
      "constant": true,
      "inputs": [],
      "name": "getSellersCount",
      "outputs": [
        {
          "internalType": "uint256",
          "name": "",
          "type": "uint256"
        }
      ],
      "payable": false,
      "stateMutability": "view",
      "type": "function"
    },
    {
      "constant": true,
      "inputs": [],
      "name": "getRequestsCount",
      "outputs": [
        {
          "internalType": "uint256",
          "name": "",
          "type": "uint256"
        }
      ],
      "payable": false,
      "stateMutability": "view",
      "type": "function"
    },
    {
      "constant": true,
      "inputs": [
        {
          "internalType": "uint256",
          "name": "i",
          "type": "uint256"
        }
      ],
      "name": "getArea",
      "outputs": [
        {
          "internalType": "string",
          "name": "",
          "type": "string"
        }
      ],
      "payable": false,
      "stateMutability": "view",
      "type": "function"
    },
    {
      "constant": true,
      "inputs": [
        {
          "internalType": "uint256",
          "name": "i",
          "type": "uint256"
        }
      ],
      "name": "getCity",
      "outputs": [
        {
          "internalType": "string",
          "name": "",
          "type": "string"
        }
      ],
      "payable": false,
      "stateMutability": "view",
      "type": "function"
    },
    {
      "constant": true,
      "inputs": [
        {
          "internalType": "uint256",
          "name": "i",
          "type": "uint256"
        }
      ],
      "name": "getDistrict",
      "outputs": [
        {
          "internalType": "string",
          "name": "",
          "type": "string"
        }
      ],
      "payable": false,
      "stateMutability": "view",
      "type": "function"
    },
    {
      "constant": true,
      "inputs": [
        {
          "internalType": "uint256",
          "name": "i",
          "type": "uint256"
        }
      ],
      "name": "getPrice",
      "outputs": [
        {
          "internalType": "uint256",
          "name": "",
          "type": "uint256"
        }
      ],
      "payable": false,
      "stateMutability": "view",
      "type": "function"
    },
    {
      "constant": true,
      "inputs": [
        {
          "internalType": "uint256",
          "name": "i",
          "type": "uint256"
        }
      ],
      "name": "getPID",
      "outputs": [
        {
          "internalType": "string",
          "name": "",
          "type": "string"
        }
      ],
      "payable": false,
      "stateMutability": "view",
      "type": "function"
    },
    {
      "constant": true,
      "inputs": [
        {
          "internalType": "uint256",
          "name": "id",
          "type": "uint256"
        }
      ],
      "name": "getLandOwner",
      "outputs": [
        {
          "internalType": "address",
          "name": "",
          "type": "address"
        }
      ],
      "payable": false,
      "stateMutability": "view",
      "type": "function"
    },
    {
      "constant": true,
      "inputs": [
        {
          "internalType": "address",
          "name": "_id",
          "type": "address"
        }
      ],
      "name": "isSeller",
      "outputs": [
        {
          "internalType": "bool",
          "name": "",
          "type": "bool"
        }
      ],
      "payable": false,
      "stateMutability": "view",
      "type": "function"
    },
    {
      "constant": true,
      "inputs": [
        {
          "internalType": "address",
          "name": "_id",
          "type": "address"
        }
      ],
      "name": "isBuyer",
      "outputs": [
        {
          "internalType": "bool",
          "name": "",
          "type": "bool"
        }
      ],
      "payable": false,
      "stateMutability": "view",
      "type": "function"
    },
    {
      "constant": true,
      "inputs": [
        {
          "internalType": "address",
          "name": "_id",
          "type": "address"
        }
      ],
      "name": "isRegistered",
      "outputs": [
        {
          "internalType": "bool",
          "name": "",
          "type": "bool"
        }
      ],
      "payable": false,
      "stateMutability": "view",
      "type": "function"
    },
    {
      "constant": false,
      "inputs": [
        {
          "internalType": "string",
          "name": "_landAddress",
          "type": "string"
        },
        {
          "internalType": "string",
          "name": "_area",
          "type": "string"
        },
        {
          "internalType": "string",
          "name": "_city",
          "type": "string"
        },
        {
          "internalType": "string",
          "name": "_district",
          "type": "string"
        },
        {
          "internalType": "string",
          "name": "_country",
          "type": "string"
        },
        {
          "internalType": "uint256",
          "name": "_landPrice",
          "type": "uint256"
        },
        {
          "internalType": "string",
          "name": "_propertyID",
          "type": "string"
        }
      ],
      "name": "addLand",
      "outputs": [],
      "payable": false,
      "stateMutability": "nonpayable",
      "type": "function"
    },
    {
      "constant": true,
      "inputs": [
        {
          "internalType": "uint256",
          "name": "_landId",
          "type": "uint256"
        }
      ],
      "name": "getLandDetails",
      "outputs": [
        {
          "internalType": "uint256",
          "name": "",
          "type": "uint256"
        },
        {
          "internalType": "string",
          "name": "",
          "type": "string"
        },
        {
          "internalType": "string",
          "name": "",
          "type": "string"
        },
        {
          "internalType": "string",
          "name": "",
          "type": "string"
        },
        {
          "internalType": "string",
          "name": "",
          "type": "string"
        },
        {
          "internalType": "string",
          "name": "",
          "type": "string"
        },
        {
          "internalType": "uint256",
          "name": "",
          "type": "uint256"
        },
        {
          "internalType": "string",
          "name": "",
          "type": "string"
        }
      ],
      "payable": false,
      "stateMutability": "view",
      "type": "function"
    },
    {
      "constant": false,
      "inputs": [
        {
          "internalType": "string",
          "name": "_name",
          "type": "string"
        },
        {
          "internalType": "uint256",
          "name": "_age",
          "type": "uint256"
        },
        {
          "internalType": "string",
          "name": "_HKID",
          "type": "string"
        }
      ],
      "name": "registerSeller",
      "outputs": [],
      "payable": false,
      "stateMutability": "nonpayable",
      "type": "function"
    },
    {
      "constant": false,
      "inputs": [
        {
          "internalType": "string",
          "name": "_name",
          "type": "string"
        },
        {
          "internalType": "uint256",
          "name": "_age",
          "type": "uint256"
        },
        {
          "internalType": "string",
          "name": "_HKID",
          "type": "string"
        }
      ],
      "name": "updateSeller",
      "outputs": [],
      "payable": false,
      "stateMutability": "nonpayable",
      "type": "function"
    },
    {
      "constant": true,
      "inputs": [],
      "name": "getSeller",
      "outputs": [
        {
          "internalType": "address[]",
          "name": "",
          "type": "address[]"
        }
      ],
      "payable": false,
      "stateMutability": "view",
      "type": "function"
    },
    {
      "constant": true,
      "inputs": [
        {
          "internalType": "address",
          "name": "i",
          "type": "address"
        }
      ],
      "name": "getSellerDetails",
      "outputs": [
        {
          "internalType": "string",
          "name": "",
          "type": "string"
        },
        {
          "internalType": "uint256",
          "name": "",
          "type": "uint256"
        },
        {
          "internalType": "string",
          "name": "",
          "type": "string"
        }
      ],
      "payable": false,
      "stateMutability": "view",
      "type": "function"
    },
    {
      "constant": false,
      "inputs": [
        {
          "internalType": "string",
          "name": "_name",
          "type": "string"
        },
        {
          "internalType": "uint256",
          "name": "_age",
          "type": "uint256"
        },
        {
          "internalType": "string",
          "name": "_city",
          "type": "string"
        },
        {
          "internalType": "string",
          "name": "_HKID",
          "type": "string"
        },
        {
          "internalType": "string",
          "name": "_email",
          "type": "string"
        }
      ],
      "name": "registerBuyer",
      "outputs": [],
      "payable": false,
      "stateMutability": "nonpayable",
      "type": "function"
    },
    {
      "constant": false,
      "inputs": [
        {
          "internalType": "string",
          "name": "_name",
          "type": "string"
        },
        {
          "internalType": "uint256",
          "name": "_age",
          "type": "uint256"
        },
        {
          "internalType": "string",
          "name": "_city",
          "type": "string"
        },
        {
          "internalType": "string",
          "name": "_email",
          "type": "string"
        },
        {
          "internalType": "string",
          "name": "_HKID",
          "type": "string"
        }
      ],
      "name": "updateBuyer",
      "outputs": [],
      "payable": false,
      "stateMutability": "nonpayable",
      "type": "function"
    },
    {
      "constant": true,
      "inputs": [],
      "name": "getBuyer",
      "outputs": [
        {
          "internalType": "address[]",
          "name": "",
          "type": "address[]"
        }
      ],
      "payable": false,
      "stateMutability": "view",
      "type": "function"
    },
    {
      "constant": true,
      "inputs": [
        {
          "internalType": "address",
          "name": "i",
          "type": "address"
        }
      ],
      "name": "getBuyerDetails",
      "outputs": [
        {
          "internalType": "string",
          "name": "",
          "type": "string"
        },
        {
          "internalType": "string",
          "name": "",
          "type": "string"
        },
        {
          "internalType": "string",
          "name": "",
          "type": "string"
        },
        {
          "internalType": "uint256",
          "name": "",
          "type": "uint256"
        },
        {
          "internalType": "string",
          "name": "",
          "type": "string"
        }
      ],
      "payable": false,
      "stateMutability": "view",
      "type": "function"
    },
    {
      "constant": false,
      "inputs": [
        {
          "internalType": "address",
          "name": "_sellerId",
          "type": "address"
        },
        {
          "internalType": "uint256",
          "name": "_landId",
          "type": "uint256"
        }
      ],
      "name": "requestLand",
      "outputs": [],
      "payable": false,
      "stateMutability": "nonpayable",
      "type": "function"
    },
    {
      "constant": true,
      "inputs": [
        {
          "internalType": "uint256",
          "name": "i",
          "type": "uint256"
        }
      ],
      "name": "getRequestDetails",
      "outputs": [
        {
          "internalType": "address",
          "name": "",
          "type": "address"
        },
        {
          "internalType": "address",
          "name": "",
          "type": "address"
        },
        {
          "internalType": "uint256",
          "name": "",
          "type": "uint256"
        },
        {
          "internalType": "bool",
          "name": "",
          "type": "bool"
        }
      ],
      "payable": false,
      "stateMutability": "view",
      "type": "function"
    },
    {
      "constant": true,
      "inputs": [
        {
          "internalType": "uint256",
          "name": "_id",
          "type": "uint256"
        }
      ],
      "name": "isRequested",
      "outputs": [
        {
          "internalType": "bool",
          "name": "",
          "type": "bool"
        }
      ],
      "payable": false,
      "stateMutability": "view",
      "type": "function"
    },
    {
      "constant": true,
      "inputs": [
        {
          "internalType": "uint256",
          "name": "_id",
          "type": "uint256"
        }
      ],
      "name": "isApproved",
      "outputs": [
        {
          "internalType": "bool",
          "name": "",
          "type": "bool"
        }
      ],
      "payable": false,
      "stateMutability": "view",
      "type": "function"
    },
    {
      "constant": false,
      "inputs": [
        {
          "internalType": "uint256",
          "name": "_reqId",
          "type": "uint256"
        }
      ],
      "name": "approveRequest",
      "outputs": [],
      "payable": false,
      "stateMutability": "nonpayable",
      "type": "function"
    },
    {
      "constant": true,
      "inputs": [
        {
          "internalType": "uint256",
          "name": "_landId",
          "type": "uint256"
        }
      ],
      "name": "isPaid",
      "outputs": [
        {
          "internalType": "bool",
          "name": "",
          "type": "bool"
        }
      ],
      "payable": false,
      "stateMutability": "view",
      "type": "function"
    },
    {
      "constant": false,
      "inputs": [
        {
          "internalType": "address payable",
          "name": "_seller",
          "type": "address"
        },
        {
          "internalType": "uint256",
          "name": "_landId",
          "type": "uint256"
        }
      ],
      "name": "payment",
      "outputs": [],
      "payable": true,
      "stateMutability": "payable",
      "type": "function"
    }
  ],
  "bytecode": "0x608060405234801561001057600080fd5b50614946806100206000396000f3fe6080604052600436106102885760003560e01c80639dc1bfa91161015a578063dd9d122d116100c1578063f2aa82181161007a578063f2aa821814610b2f578063f34d4c6314610b6c578063f3f0c21814610bac578063f58f85b514610bd5578063fbfa4b7f14610c12578063fe0cb7dc14610c3d57610288565b8063dd9d122d146109db578063dec091ad14610a06578063e261f1e514610a46578063e757223014610a8a578063ee95feaf14610ac7578063f0d3a9df14610b0457610288565b8063c3c5a54711610113578063c3c5a54714610893578063cd392a83146108d0578063cee26ed51461090d578063d71306511461094a578063d7d1bbdb14610987578063dbd0e1b6146109b057610288565b80639dc1bfa91461072d578063a47d4c021461076a578063ab517074146107a7578063b0a5dcd3146107e9578063b3c8fe8514610829578063ba49a08c1461086857610288565b80634daa9dae116101fe57806368cfe6ee116101b757806368cfe6ee146105f55780637910867b146106365780637d7bc3fb1461067357806389d213541461069c5780639ae9711e146106d95780639d7167ba1461070457610288565b80634daa9dae146104ce5780635da20ac61461050b578063601e7c3414610534578063603daf9a146105715780636490c7a81461059c57806367a09c23146105d957610288565b80631a07f76e116102505780631a07f76e146103985780631c9afd0f146103d557806322776478146104005780632a55feec1461043d5780633410452a1461047a5780634469e362146104a557610288565b8063059b13431461028d57806307d56ac0146102b6578063155fec72146102f357806316d9d666146103305780631869a38b1461035b575b600080fd5b34801561029957600080fd5b506102b460048036036102af9190810190613e02565b610c81565b005b3480156102c257600080fd5b506102dd60048036036102d89190810190613ed9565b610f88565b6040516102ea91906143d1565b60405180910390f35b3480156102ff57600080fd5b5061031a60048036036103159190810190613ed9565b61103f565b60405161032791906143b6565b60405180910390f35b34801561033c57600080fd5b5061034561107a565b6040516103529190614567565b60405180910390f35b34801561036757600080fd5b50610382600480360361037d9190810190613ed9565b611084565b60405161038f9190614249565b60405180910390f35b3480156103a457600080fd5b506103bf60048036036103ba9190810190613ed9565b6110c1565b6040516103cc91906143b6565b60405180910390f35b3480156103e157600080fd5b506103ea6110e1565b6040516103f79190614567565b60405180910390f35b34801561040c57600080fd5b5061042760048036036104229190810190613ed9565b6110e7565b60405161043491906143d1565b60405180910390f35b34801561044957600080fd5b50610464600480360361045f9190810190613bb4565b61119e565b60405161047191906143b6565b60405180910390f35b34801561048657600080fd5b5061048f611201565b60405161049c9190614567565b60405180910390f35b3480156104b157600080fd5b506104cc60048036036104c79190810190613d83565b61120b565b005b3480156104da57600080fd5b506104f560048036036104f09190810190613ed9565b6114ca565b60405161050291906143b6565b60405180910390f35b34801561051757600080fd5b50610532600480360361052d9190810190613e02565b6114ea565b005b34801561054057600080fd5b5061055b60048036036105569190810190613bb4565b611783565b60405161056891906143b6565b60405180910390f35b34801561057d57600080fd5b506105866117a3565b6040516105939190614394565b60405180910390f35b3480156105a857600080fd5b506105c360048036036105be9190810190613ed9565b611831565b6040516105d091906143d1565b60405180910390f35b6105f360048036036105ee9190810190613bdd565b6118e8565b005b34801561060157600080fd5b5061061c60048036036106179190810190613bb4565b611b4c565b60405161062d9594939291906143f3565b60405180910390f35b34801561064257600080fd5b5061065d60048036036106589190810190613ed9565b611f23565b60405161066a91906143b6565b60405180910390f35b34801561067f57600080fd5b5061069a60048036036106959190810190613c55565b611f5e565b005b3480156106a857600080fd5b506106c360048036036106be9190810190613ed9565b612229565b6040516106d091906143b6565b60405180910390f35b3480156106e557600080fd5b506106ee612249565b6040516106fb9190614567565b60405180910390f35b34801561071057600080fd5b5061072b60048036036107269190810190613d83565b61224f565b005b34801561073957600080fd5b50610754600480360361074f9190810190613ed9565b612438565b6040516107619190614249565b60405180910390f35b34801561077657600080fd5b50610791600480360361078c9190810190613bb4565b61246b565b60405161079e91906143b6565b60405180910390f35b3480156107b357600080fd5b506107ce60048036036107c99190810190613bb4565b61248b565b6040516107e096959493929190614317565b60405180910390f35b3480156107f557600080fd5b50610810600480360361080b9190810190613ed9565b612747565b6040516108209493929190614582565b60405180910390f35b34801561083557600080fd5b50610850600480360361084b9190810190613bb4565b6127b7565b60405161085f93929190614462565b60405180910390f35b34801561087457600080fd5b5061087d6129c9565b60405161088a9190614567565b60405180910390f35b34801561089f57600080fd5b506108ba60048036036108b59190810190613bb4565b6129cf565b6040516108c791906143b6565b60405180910390f35b3480156108dc57600080fd5b506108f760048036036108f29190810190613ed9565b612a32565b60405161090491906143b6565b60405180910390f35b34801561091957600080fd5b50610934600480360361092f9190810190613ed9565b612a69565b6040516109419190614249565b60405180910390f35b34801561095657600080fd5b50610971600480360361096c9190810190613ed9565b612aa5565b60405161097e91906143d1565b60405180910390f35b34801561099357600080fd5b506109ae60048036036109a99190810190613ed9565b612b5c565b005b3480156109bc57600080fd5b506109c5612b9d565b6040516109d29190614394565b60405180910390f35b3480156109e757600080fd5b506109f0612c2b565b6040516109fd9190614567565b60405180910390f35b348015610a1257600080fd5b50610a2d6004803603610a289190810190613bb4565b612c35565b604051610a3d94939291906142c4565b60405180910390f35b348015610a5257600080fd5b50610a6d6004803603610a689190810190613ed9565b612db5565b604051610a8198979695949392919061466f565b60405180910390f35b348015610a9657600080fd5b50610ab16004803603610aac9190810190613ed9565b61318d565b604051610abe9190614567565b60405180910390f35b348015610ad357600080fd5b50610aee6004803603610ae99190810190613bb4565b6131ac565b604051610afb91906143b6565b60405180910390f35b348015610b1057600080fd5b50610b1961320f565b604051610b269190614567565b60405180910390f35b348015610b3b57600080fd5b50610b566004803603610b519190810190613ed9565b613219565b604051610b639190614249565b60405180910390f35b348015610b7857600080fd5b50610b936004803603610b8e9190810190613ed9565b613255565b604051610ba3949392919061427f565b60405180910390f35b348015610bb857600080fd5b50610bd36004803603610bce9190810190613c19565b613310565b005b348015610be157600080fd5b50610bfc6004803603610bf79190810190613bb4565b6134d4565b604051610c0991906143b6565b60405180910390f35b348015610c1e57600080fd5b50610c276134f4565b604051610c349190614567565b60405180910390f35b348015610c4957600080fd5b50610c646004803603610c5f9190810190613ed9565b6134fa565b604051610c789897969594939291906145c7565b60405180910390f35b600560003373ffffffffffffffffffffffffffffffffffffffff1673ffffffffffffffffffffffffffffffffffffffff16815260200190815260200160002060009054906101000a900460ff1615610cd857600080fd5b6001600560003373ffffffffffffffffffffffffffffffffffffffff1673ffffffffffffffffffffffffffffffffffffffff16815260200190815260200160002060006101000a81548160ff0219169083151502179055506001600760003373ffffffffffffffffffffffffffffffffffffffff1673ffffffffffffffffffffffffffffffffffffffff16815260200190815260200160002060006101000a81548160ff0219169083151502179055506010600081548092919060010191905055506040518060c001604052803373ffffffffffffffffffffffffffffffffffffffff16815260200186815260200185815260200184815260200183815260200182815250600260003373ffffffffffffffffffffffffffffffffffffffff1673ffffffffffffffffffffffffffffffffffffffff16815260200190815260200160002060008201518160000160006101000a81548173ffffffffffffffffffffffffffffffffffffffff021916908373ffffffffffffffffffffffffffffffffffffffff1602179055506020820151816001019080519060200190610e7f9291906139b7565b50604082015181600201556060820151816003019080519060200190610ea69291906139b7565b506080820151816004019080519060200190610ec39291906139b7565b5060a0820151816005019080519060200190610ee09291906139b7565b50905050600d3390806001815401808255809150509060018203906000526020600020016000909192909190916101000a81548173ffffffffffffffffffffffffffffffffffffffff021916908373ffffffffffffffffffffffffffffffffffffffff160217905550507f478f5152d8fc568db3f8de9fb402fd9d98a1a7541ecfe434e59cf574fbfc552433604051610f799190614264565b60405180910390a15050505050565b60606000808381526020019081526020016000206007018054600181600116156101000203166002900480601f0160208091040260200160405190810160405280929190818152602001828054600181600116156101000203166002900480156110335780601f1061100857610100808354040283529160200191611033565b820191906000526020600020905b81548152906001019060200180831161101657829003601f168201915b50505050509050919050565b6000600a600083815260200190815260200160002060009054906101000a900460ff16156110705760019050611075565b600090505b919050565b6000600e54905090565b60006008600083815260200190815260200160002060009054906101000a900473ffffffffffffffffffffffffffffffffffffffff169050919050565b600b6020528060005260406000206000915054906101000a900460ff1681565b600e5481565b60606000808381526020019081526020016000206004018054600181600116156101000203166002900480601f0160208091040260200160405190810160405280929190818152602001828054600181600116156101000203166002900480156111925780601f1061116757610100808354040283529160200191611192565b820191906000526020600020905b81548152906001019060200180831161117557829003601f168201915b50505050509050919050565b6000600760008373ffffffffffffffffffffffffffffffffffffffff1673ffffffffffffffffffffffffffffffffffffffff16815260200190815260200160002060009054906101000a900460ff16156111fb57600190506111fc565b5b919050565b6000601154905090565b600560003373ffffffffffffffffffffffffffffffffffffffff1673ffffffffffffffffffffffffffffffffffffffff16815260200190815260200160002060009054906101000a900460ff161561126257600080fd5b6001600560003373ffffffffffffffffffffffffffffffffffffffff1673ffffffffffffffffffffffffffffffffffffffff16815260200190815260200160002060006101000a81548160ff0219169083151502179055506001600660003373ffffffffffffffffffffffffffffffffffffffff1673ffffffffffffffffffffffffffffffffffffffff16815260200190815260200160002060006101000a81548160ff021916908315150217905550600f6000815480929190600101919050555060405180608001604052803373ffffffffffffffffffffffffffffffffffffffff16815260200184815260200183815260200182815250600160003373ffffffffffffffffffffffffffffffffffffffff1673ffffffffffffffffffffffffffffffffffffffff16815260200190815260200160002060008201518160000160006101000a81548173ffffffffffffffffffffffffffffffffffffffff021916908373ffffffffffffffffffffffffffffffffffffffff16021790555060208201518160010190805190602001906113fd9291906139b7565b506040820151816002015560608201518160030190805190602001906114249291906139b7565b50905050600c3390806001815401808255809150509060018203906000526020600020016000909192909190916101000a81548173ffffffffffffffffffffffffffffffffffffffff021916908373ffffffffffffffffffffffffffffffffffffffff160217905550507f478f5152d8fc568db3f8de9fb402fd9d98a1a7541ecfe434e59cf574fbfc5524336040516114bd9190614264565b60405180910390a1505050565b600a6020528060005260406000206000915054906101000a900460ff1681565b600560003373ffffffffffffffffffffffffffffffffffffffff1673ffffffffffffffffffffffffffffffffffffffff16815260200190815260200160002060009054906101000a900460ff1680156115d057503373ffffffffffffffffffffffffffffffffffffffff16600260003373ffffffffffffffffffffffffffffffffffffffff1673ffffffffffffffffffffffffffffffffffffffff16815260200190815260200160002060000160009054906101000a900473ffffffffffffffffffffffffffffffffffffffff1673ffffffffffffffffffffffffffffffffffffffff16145b6115d957600080fd5b84600260003373ffffffffffffffffffffffffffffffffffffffff1673ffffffffffffffffffffffffffffffffffffffff168152602001908152602001600020600101908051906020019061162f929190613a37565b5083600260003373ffffffffffffffffffffffffffffffffffffffff1673ffffffffffffffffffffffffffffffffffffffff1681526020019081526020016000206002018190555082600260003373ffffffffffffffffffffffffffffffffffffffff1673ffffffffffffffffffffffffffffffffffffffff16815260200190815260200160002060030190805190602001906116cd929190613a37565b5080600260003373ffffffffffffffffffffffffffffffffffffffff1673ffffffffffffffffffffffffffffffffffffffff1681526020019081526020016000206004019080519060200190611724929190613a37565b5081600260003373ffffffffffffffffffffffffffffffffffffffff1673ffffffffffffffffffffffffffffffffffffffff168152602001908152602001600020600501908051906020019061177b929190613a37565b505050505050565b60066020528060005260406000206000915054906101000a900460ff1681565b6060600d80548060200260200160405190810160405280929190818152602001828054801561182757602002820191906000526020600020905b8160009054906101000a900473ffffffffffffffffffffffffffffffffffffffff1673ffffffffffffffffffffffffffffffffffffffff16815260200190600101908083116117dd575b5050505050905090565b60606000808381526020019081526020016000206002018054600181600116156101000203166002900480601f0160208091040260200160405190810160405280929190818152602001828054600181600116156101000203166002900480156118dc5780601f106118b1576101008083540402835291602001916118dc565b820191906000526020600020905b8154815290600101906020018083116118bf57829003601f168201915b50505050509050919050565b8173ffffffffffffffffffffffffffffffffffffffff166008600083815260200190815260200160002060009054906101000a900473ffffffffffffffffffffffffffffffffffffffff1673ffffffffffffffffffffffffffffffffffffffff1614611989576040517f08c379a000000000000000000000000000000000000000000000000000000000815260040161198090614507565b60405180910390fd5b6000808281526020019081526020016000206006015434146119e0576040517f08c379a00000000000000000000000000000000000000000000000000000000081526004016119d7906144e7565b60405180910390fd5b6119e93361119e565b611a28576040517f08c379a0000000000000000000000000000000000000000000000000000000008152600401611a1f906144a7565b60405180910390fd5b8173ffffffffffffffffffffffffffffffffffffffff166108fc349081150290604051600060405180830381858888f19350505050158015611a6e573d6000803e3d6000fd5b50336008600083815260200190815260200160002060006101000a81548173ffffffffffffffffffffffffffffffffffffffff021916908373ffffffffffffffffffffffffffffffffffffffff1602179055506001600b600083815260200190815260200160002060006101000a81548160ff0219169083151502179055503373ffffffffffffffffffffffffffffffffffffffff168273ffffffffffffffffffffffffffffffffffffffff16827fa3b0b9020f88aba79dc7d52f5e1da8502bcea42c242b02d2144b71b2de7f049560405160405180910390a45050565b606080606060006060600260008773ffffffffffffffffffffffffffffffffffffffff1673ffffffffffffffffffffffffffffffffffffffff168152602001908152602001600020600101600260008873ffffffffffffffffffffffffffffffffffffffff1673ffffffffffffffffffffffffffffffffffffffff168152602001908152602001600020600301600260008973ffffffffffffffffffffffffffffffffffffffff1673ffffffffffffffffffffffffffffffffffffffff168152602001908152602001600020600501600260008a73ffffffffffffffffffffffffffffffffffffffff1673ffffffffffffffffffffffffffffffffffffffff16815260200190815260200160002060020154600260008b73ffffffffffffffffffffffffffffffffffffffff1673ffffffffffffffffffffffffffffffffffffffff168152602001908152602001600020600401848054600181600116156101000203166002900480601f016020809104026020016040519081016040528092919081815260200182805460018160011615610100020316600290048015611d355780601f10611d0a57610100808354040283529160200191611d35565b820191906000526020600020905b815481529060010190602001808311611d1857829003601f168201915b50505050509450838054600181600116156101000203166002900480601f016020809104026020016040519081016040528092919081815260200182805460018160011615610100020316600290048015611dd15780601f10611da657610100808354040283529160200191611dd1565b820191906000526020600020905b815481529060010190602001808311611db457829003601f168201915b50505050509350828054600181600116156101000203166002900480601f016020809104026020016040519081016040528092919081815260200182805460018160011615610100020316600290048015611e6d5780601f10611e4257610100808354040283529160200191611e6d565b820191906000526020600020905b815481529060010190602001808311611e5057829003601f168201915b50505050509250808054600181600116156101000203166002900480601f016020809104026020016040519081016040528092919081815260200182805460018160011615610100020316600290048015611f095780601f10611ede57610100808354040283529160200191611f09565b820191906000526020600020905b815481529060010190602001808311611eec57829003601f168201915b505050505090509450945094509450945091939590929450565b60006009600083815260200190815260200160002060009054906101000a900460ff1615611f545760019050611f59565b600090505b919050565b611f67336131ac565b611fa6576040517f08c379a0000000000000000000000000000000000000000000000000000000008152600401611f9d906144c7565b60405180910390fd5b600481604051611fb69190614232565b908152602001604051809103902060009054906101000a900460ff1615612012576040517f08c379a000000000000000000000000000000000000000000000000000000000815260040161200990614527565b60405180910390fd5b600e60008154809291906001019190505550604051806101000160405280600e54815260200188815260200187815260200186815260200185815260200184815260200183815260200182815250600080600e54815260200190815260200160002060008201518160000155602082015181600101908051906020019061209a9291906139b7565b5060408201518160020190805190602001906120b79291906139b7565b5060608201518160030190805190602001906120d49291906139b7565b5060808201518160040190805190602001906120f19291906139b7565b5060a082015181600501908051906020019061210e9291906139b7565b5060c0820151816006015560e08201518160070190805190602001906121359291906139b7565b50905050600060096000600e54815260200190815260200160002060006101000a81548160ff0219169083151502179055506000600a6000600e54815260200190815260200160002060006101000a81548160ff0219169083151502179055503360086000600e54815260200190815260200160002060006101000a81548173ffffffffffffffffffffffffffffffffffffffff021916908373ffffffffffffffffffffffffffffffffffffffff16021790555060016004826040516121fb9190614232565b908152602001604051809103902060006101000a81548160ff02191690831515021790555050505050505050565b60096020528060005260406000206000915054906101000a900460ff1681565b600f5481565b600560003373ffffffffffffffffffffffffffffffffffffffff1673ffffffffffffffffffffffffffffffffffffffff16815260200190815260200160002060009054906101000a900460ff16801561233557503373ffffffffffffffffffffffffffffffffffffffff16600160003373ffffffffffffffffffffffffffffffffffffffff1673ffffffffffffffffffffffffffffffffffffffff16815260200190815260200160002060000160009054906101000a900473ffffffffffffffffffffffffffffffffffffffff1673ffffffffffffffffffffffffffffffffffffffff16145b61233e57600080fd5b82600160003373ffffffffffffffffffffffffffffffffffffffff1673ffffffffffffffffffffffffffffffffffffffff1681526020019081526020016000206001019080519060200190612394929190613a37565b5081600160003373ffffffffffffffffffffffffffffffffffffffff1673ffffffffffffffffffffffffffffffffffffffff1681526020019081526020016000206002018190555080600160003373ffffffffffffffffffffffffffffffffffffffff1673ffffffffffffffffffffffffffffffffffffffff1681526020019081526020016000206003019080519060200190612432929190613a37565b50505050565b60086020528060005260406000206000915054906101000a900473ffffffffffffffffffffffffffffffffffffffff1681565b60076020528060005260406000206000915054906101000a900460ff1681565b60026020528060005260406000206000915090508060000160009054906101000a900473ffffffffffffffffffffffffffffffffffffffff1690806001018054600181600116156101000203166002900480601f01602080910402602001604051908101604052809291908181526020018280546001816001161561010002031660029004801561255d5780601f106125325761010080835404028352916020019161255d565b820191906000526020600020905b81548152906001019060200180831161254057829003601f168201915b505050505090806002015490806003018054600181600116156101000203166002900480601f0160208091040260200160405190810160405280929190818152602001828054600181600116156101000203166002900480156126015780601f106125d657610100808354040283529160200191612601565b820191906000526020600020905b8154815290600101906020018083116125e457829003601f168201915b505050505090806004018054600181600116156101000203166002900480601f01602080910402602001604051908101604052809291908181526020018280546001816001161561010002031660029004801561269f5780601f106126745761010080835404028352916020019161269f565b820191906000526020600020905b81548152906001019060200180831161268257829003601f168201915b505050505090806005018054600181600116156101000203166002900480601f01602080910402602001604051908101604052809291908181526020018280546001816001161561010002031660029004801561273d5780601f106127125761010080835404028352916020019161273d565b820191906000526020600020905b81548152906001019060200180831161272057829003601f168201915b5050505050905086565b60036020528060005260406000206000915090508060000154908060010160009054906101000a900473ffffffffffffffffffffffffffffffffffffffff16908060020160009054906101000a900473ffffffffffffffffffffffffffffffffffffffff16908060030154905084565b606060006060600160008573ffffffffffffffffffffffffffffffffffffffff1673ffffffffffffffffffffffffffffffffffffffff168152602001908152602001600020600101600160008673ffffffffffffffffffffffffffffffffffffffff1673ffffffffffffffffffffffffffffffffffffffff16815260200190815260200160002060020154600160008773ffffffffffffffffffffffffffffffffffffffff1673ffffffffffffffffffffffffffffffffffffffff168152602001908152602001600020600301828054600181600116156101000203166002900480601f0160208091040260200160405190810160405280929190818152602001828054600181600116156101000203166002900480156129195780601f106128ee57610100808354040283529160200191612919565b820191906000526020600020905b8154815290600101906020018083116128fc57829003601f168201915b50505050509250808054600181600116156101000203166002900480601f0160208091040260200160405190810160405280929190818152602001828054600181600116156101000203166002900480156129b55780601f1061298a576101008083540402835291602001916129b5565b820191906000526020600020905b81548152906001019060200180831161299857829003601f168201915b505050505090509250925092509193909250565b60105481565b6000600560008373ffffffffffffffffffffffffffffffffffffffff1673ffffffffffffffffffffffffffffffffffffffff16815260200190815260200160002060009054906101000a900460ff1615612a2c5760019050612a2d565b5b919050565b6000600b600083815260200190815260200160002060009054906101000a900460ff1615612a635760019050612a64565b5b919050565b600c8181548110612a7657fe5b906000526020600020016000915054906101000a900473ffffffffffffffffffffffffffffffffffffffff1681565b60606000808381526020019081526020016000206003018054600181600116156101000203166002900480601f016020809104026020016040519081016040528092919081815260200182805460018160011615610100020316600290048015612b505780601f10612b2557610100808354040283529160200191612b50565b820191906000526020600020905b815481529060010190602001808311612b3357829003601f168201915b50505050509050919050565b612b65336131ac565b612b6e57600080fd5b60016009600083815260200190815260200160002060006101000a81548160ff02191690831515021790555050565b6060600c805480602002602001604051908101604052809291908181526020018280548015612c2157602002820191906000526020600020905b8160009054906101000a900473ffffffffffffffffffffffffffffffffffffffff1673ffffffffffffffffffffffffffffffffffffffff1681526020019060010190808311612bd7575b5050505050905090565b6000600f54905090565b60016020528060005260406000206000915090508060000160009054906101000a900473ffffffffffffffffffffffffffffffffffffffff1690806001018054600181600116156101000203166002900480601f016020809104026020016040519081016040528092919081815260200182805460018160011615610100020316600290048015612d075780601f10612cdc57610100808354040283529160200191612d07565b820191906000526020600020905b815481529060010190602001808311612cea57829003601f168201915b505050505090806002015490806003018054600181600116156101000203166002900480601f016020809104026020016040519081016040528092919081815260200182805460018160011615610100020316600290048015612dab5780601f10612d8057610100808354040283529160200191612dab565b820191906000526020600020905b815481529060010190602001808311612d8e57829003601f168201915b5050505050905084565b6000602052806000526040600020600091509050806000015490806001018054600181600116156101000203166002900480601f016020809104026020016040519081016040528092919081815260200182805460018160011615610100020316600290048015612e675780601f10612e3c57610100808354040283529160200191612e67565b820191906000526020600020905b815481529060010190602001808311612e4a57829003601f168201915b505050505090806002018054600181600116156101000203166002900480601f016020809104026020016040519081016040528092919081815260200182805460018160011615610100020316600290048015612f055780601f10612eda57610100808354040283529160200191612f05565b820191906000526020600020905b815481529060010190602001808311612ee857829003601f168201915b505050505090806003018054600181600116156101000203166002900480601f016020809104026020016040519081016040528092919081815260200182805460018160011615610100020316600290048015612fa35780601f10612f7857610100808354040283529160200191612fa3565b820191906000526020600020905b815481529060010190602001808311612f8657829003601f168201915b505050505090806004018054600181600116156101000203166002900480601f0160208091040260200160405190810160405280929190818152602001828054600181600116156101000203166002900480156130415780601f1061301657610100808354040283529160200191613041565b820191906000526020600020905b81548152906001019060200180831161302457829003601f168201915b505050505090806005018054600181600116156101000203166002900480601f0160208091040260200160405190810160405280929190818152602001828054600181600116156101000203166002900480156130df5780601f106130b4576101008083540402835291602001916130df565b820191906000526020600020905b8154815290600101906020018083116130c257829003601f168201915b505050505090806006015490806007018054600181600116156101000203166002900480601f0160208091040260200160405190810160405280929190818152602001828054600181600116156101000203166002900480156131835780601f1061315857610100808354040283529160200191613183565b820191906000526020600020905b81548152906001019060200180831161316657829003601f168201915b5050505050905088565b6000806000838152602001908152602001600020600601549050919050565b6000600660008373ffffffffffffffffffffffffffffffffffffffff1673ffffffffffffffffffffffffffffffffffffffff16815260200190815260200160002060009054906101000a900460ff1615613209576001905061320a565b5b919050565b6000601054905090565b600d818154811061322657fe5b906000526020600020016000915054906101000a900473ffffffffffffffffffffffffffffffffffffffff1681565b6000806000806003600086815260200190815260200160002060010160009054906101000a900473ffffffffffffffffffffffffffffffffffffffff166003600087815260200190815260200160002060020160009054906101000a900473ffffffffffffffffffffffffffffffffffffffff1660036000888152602001908152602001600020600301546009600089815260200190815260200160002060009054906101000a900460ff1693509350935093509193509193565b6133193361119e565b61332257600080fd5b601160008154809291906001019190505550604051806080016040528060115481526020018373ffffffffffffffffffffffffffffffffffffffff1681526020013373ffffffffffffffffffffffffffffffffffffffff168152602001828152506003600060115481526020019081526020016000206000820151816000015560208201518160010160006101000a81548173ffffffffffffffffffffffffffffffffffffffff021916908373ffffffffffffffffffffffffffffffffffffffff16021790555060408201518160020160006101000a81548173ffffffffffffffffffffffffffffffffffffffff021916908373ffffffffffffffffffffffffffffffffffffffff16021790555060608201518160030155905050600060096000601154815260200190815260200160002060006101000a81548160ff0219169083151502179055506001600a6000601154815260200190815260200160002060006101000a81548160ff0219169083151502179055507fc67eb70629da758128cec22f7e36ad0676066ad4df9b66e8ba58a30c1ab4075b826040516134c89190614249565b60405180910390a15050565b60056020528060005260406000206000915054906101000a900460ff1681565b60115481565b600060608060608060606000606060008911801561351a5750600e548911155b613559576040517f08c379a000000000000000000000000000000000000000000000000000000000815260040161355090614547565b60405180910390fd5b613561613ab7565b6000808b81526020019081526020016000206040518061010001604052908160008201548152602001600182018054600181600116156101000203166002900480601f0160208091040260200160405190810160405280929190818152602001828054600181600116156101000203166002900480156136225780601f106135f757610100808354040283529160200191613622565b820191906000526020600020905b81548152906001019060200180831161360557829003601f168201915b50505050508152602001600282018054600181600116156101000203166002900480601f0160208091040260200160405190810160405280929190818152602001828054600181600116156101000203166002900480156136c45780601f10613699576101008083540402835291602001916136c4565b820191906000526020600020905b8154815290600101906020018083116136a757829003601f168201915b50505050508152602001600382018054600181600116156101000203166002900480601f0160208091040260200160405190810160405280929190818152602001828054600181600116156101000203166002900480156137665780601f1061373b57610100808354040283529160200191613766565b820191906000526020600020905b81548152906001019060200180831161374957829003601f168201915b50505050508152602001600482018054600181600116156101000203166002900480601f0160208091040260200160405190810160405280929190818152602001828054600181600116156101000203166002900480156138085780601f106137dd57610100808354040283529160200191613808565b820191906000526020600020905b8154815290600101906020018083116137eb57829003601f168201915b50505050508152602001600582018054600181600116156101000203166002900480601f0160208091040260200160405190810160405280929190818152602001828054600181600116156101000203166002900480156138aa5780601f1061387f576101008083540402835291602001916138aa565b820191906000526020600020905b81548152906001019060200180831161388d57829003601f168201915b5050505050815260200160068201548152602001600782018054600181600116156101000203166002900480601f0160208091040260200160405190810160405280929190818152602001828054600181600116156101000203166002900480156139565780601f1061392b57610100808354040283529160200191613956565b820191906000526020600020905b81548152906001019060200180831161393957829003601f168201915b5050505050815250509050806000015181602001518260400151836060015184608001518560a001518660c001518760e001518696508595508494508393508292508090509850985098509850985098509850985050919395975091939597565b828054600181600116156101000203166002900490600052602060002090601f016020900481019282601f106139f857805160ff1916838001178555613a26565b82800160010185558215613a26579182015b82811115613a25578251825591602001919060010190613a0a565b5b509050613a339190613afc565b5090565b828054600181600116156101000203166002900490600052602060002090601f016020900481019282601f10613a7857805160ff1916838001178555613aa6565b82800160010185558215613aa6579182015b82811115613aa5578251825591602001919060010190613a8a565b5b509050613ab39190613afc565b5090565b60405180610100016040528060008152602001606081526020016060815260200160608152602001606081526020016060815260200160008152602001606081525090565b613b1e91905b80821115613b1a576000816000905550600101613b02565b5090565b90565b600081359050613b30816148be565b92915050565b600081359050613b45816148d5565b92915050565b600082601f830112613b5c57600080fd5b8135613b6f613b6a82614744565b614717565b91508082526020830160208301858383011115613b8b57600080fd5b613b9683828461486b565b50505092915050565b600081359050613bae816148ec565b92915050565b600060208284031215613bc657600080fd5b6000613bd484828501613b21565b91505092915050565b60008060408385031215613bf057600080fd5b6000613bfe85828601613b36565b9250506020613c0f85828601613b9f565b9150509250929050565b60008060408385031215613c2c57600080fd5b6000613c3a85828601613b21565b9250506020613c4b85828601613b9f565b9150509250929050565b600080600080600080600060e0888a031215613c7057600080fd5b600088013567ffffffffffffffff811115613c8a57600080fd5b613c968a828b01613b4b565b975050602088013567ffffffffffffffff811115613cb357600080fd5b613cbf8a828b01613b4b565b965050604088013567ffffffffffffffff811115613cdc57600080fd5b613ce88a828b01613b4b565b955050606088013567ffffffffffffffff811115613d0557600080fd5b613d118a828b01613b4b565b945050608088013567ffffffffffffffff811115613d2e57600080fd5b613d3a8a828b01613b4b565b93505060a0613d4b8a828b01613b9f565b92505060c088013567ffffffffffffffff811115613d6857600080fd5b613d748a828b01613b4b565b91505092959891949750929550565b600080600060608486031215613d9857600080fd5b600084013567ffffffffffffffff811115613db257600080fd5b613dbe86828701613b4b565b9350506020613dcf86828701613b9f565b925050604084013567ffffffffffffffff811115613dec57600080fd5b613df886828701613b4b565b9150509250925092565b600080600080600060a08688031215613e1a57600080fd5b600086013567ffffffffffffffff811115613e3457600080fd5b613e4088828901613b4b565b9550506020613e5188828901613b9f565b945050604086013567ffffffffffffffff811115613e6e57600080fd5b613e7a88828901613b4b565b935050606086013567ffffffffffffffff811115613e9757600080fd5b613ea388828901613b4b565b925050608086013567ffffffffffffffff811115613ec057600080fd5b613ecc88828901613b4b565b9150509295509295909350565b600060208284031215613eeb57600080fd5b6000613ef984828501613b9f565b91505092915050565b6000613f0e8383613f29565b60208301905092915050565b613f2381614835565b82525050565b613f32816147db565b82525050565b613f41816147db565b82525050565b6000613f5282614780565b613f5c81856147ae565b9350613f6783614770565b8060005b83811015613f98578151613f7f8882613f02565b9750613f8a836147a1565b925050600181019050613f6b565b5085935050505092915050565b613fae816147ff565b82525050565b6000613fbf82614796565b613fc981856147bf565b9350613fd981856020860161487a565b613fe2816148ad565b840191505092915050565b6000613ff882614796565b61400281856147d0565b935061401281856020860161487a565b80840191505092915050565b60006140298261478b565b61403381856147bf565b935061404381856020860161487a565b61404c816148ad565b840191505092915050565b60006140646029836147bf565b91507f4f6e6c792072656769737465726564206275796572732063616e206d616b652060008301527f7061796d656e74732e00000000000000000000000000000000000000000000006020830152604082019050919050565b60006140ca601b836147bf565b91507f4f6e6c792073656c6c6572732063616e20616464206c616e64732e00000000006000830152602082019050919050565b600061410a6019836147bf565b91507f496e636f7272656374207061796d656e7420616d6f756e742e000000000000006000830152602082019050919050565b600061414a601d836147bf565b91507f53656c6c657220646f6573206e6f74206f776e20746865206c616e642e0000006000830152602082019050919050565b600061418a6022836147bf565b91507f50726f706572747920494420697320616c72656164792072656769737465726560008301527f642e0000000000000000000000000000000000000000000000000000000000006020830152604082019050919050565b60006141f06018836147bf565b91507f4c616e64204944206973206f7574206f6620626f756e647300000000000000006000830152602082019050919050565b61422c8161482b565b82525050565b600061423e8284613fed565b915081905092915050565b600060208201905061425e6000830184613f38565b92915050565b60006020820190506142796000830184613f1a565b92915050565b60006080820190506142946000830187613f38565b6142a16020830186613f38565b6142ae6040830185614223565b6142bb6060830184613fa5565b95945050505050565b60006080820190506142d96000830187613f38565b81810360208301526142eb818661401e565b90506142fa6040830185614223565b818103606083015261430c818461401e565b905095945050505050565b600060c08201905061432c6000830189613f38565b818103602083015261433e818861401e565b905061434d6040830187614223565b818103606083015261435f818661401e565b90508181036080830152614373818561401e565b905081810360a0830152614387818461401e565b9050979650505050505050565b600060208201905081810360008301526143ae8184613f47565b905092915050565b60006020820190506143cb6000830184613fa5565b92915050565b600060208201905081810360008301526143eb8184613fb4565b905092915050565b600060a082019050818103600083015261440d8188613fb4565b905081810360208301526144218187613fb4565b905081810360408301526144358186613fb4565b90506144446060830185614223565b81810360808301526144568184613fb4565b90509695505050505050565b6000606082019050818103600083015261447c8186613fb4565b905061448b6020830185614223565b818103604083015261449d8184613fb4565b9050949350505050565b600060208201905081810360008301526144c081614057565b9050919050565b600060208201905081810360008301526144e0816140bd565b9050919050565b60006020820190508181036000830152614500816140fd565b9050919050565b600060208201905081810360008301526145208161413d565b9050919050565b600060208201905081810360008301526145408161417d565b9050919050565b60006020820190508181036000830152614560816141e3565b9050919050565b600060208201905061457c6000830184614223565b92915050565b60006080820190506145976000830187614223565b6145a46020830186613f38565b6145b16040830185613f38565b6145be6060830184614223565b95945050505050565b6000610100820190506145dd600083018b614223565b81810360208301526145ef818a613fb4565b905081810360408301526146038189613fb4565b905081810360608301526146178188613fb4565b9050818103608083015261462b8187613fb4565b905081810360a083015261463f8186613fb4565b905061464e60c0830185614223565b81810360e08301526146608184613fb4565b90509998505050505050505050565b600061010082019050614685600083018b614223565b8181036020830152614697818a61401e565b905081810360408301526146ab818961401e565b905081810360608301526146bf818861401e565b905081810360808301526146d3818761401e565b905081810360a08301526146e7818661401e565b90506146f660c0830185614223565b81810360e0830152614708818461401e565b90509998505050505050505050565b6000604051905081810181811067ffffffffffffffff8211171561473a57600080fd5b8060405250919050565b600067ffffffffffffffff82111561475b57600080fd5b601f19601f8301169050602081019050919050565b6000819050602082019050919050565b600081519050919050565b600081519050919050565b600081519050919050565b6000602082019050919050565b600082825260208201905092915050565b600082825260208201905092915050565b600081905092915050565b60006147e68261480b565b9050919050565b60006147f88261480b565b9050919050565b60008115159050919050565b600073ffffffffffffffffffffffffffffffffffffffff82169050919050565b6000819050919050565b600061484082614847565b9050919050565b600061485282614859565b9050919050565b60006148648261480b565b9050919050565b82818337600083830152505050565b60005b8381101561489857808201518184015260208101905061487d565b838111156148a7576000848401525b50505050565b6000601f19601f8301169050919050565b6148c7816147db565b81146148d257600080fd5b50565b6148de816147ed565b81146148e957600080fd5b50565b6148f58161482b565b811461490057600080fd5b5056fea365627a7a723158206d74076742a41a54ed71e46b8f565a9a718b5b644d281122345cd58b9ecec1426c6578706572696d656e74616cf564736f6c63430005110040",
  "source": "pragma solidity >=0.5.2;\npragma experimental ABIEncoderV2;\n// 0x7DBb2a027F6303b4c3E403DfA99BbCD3e3bFaf9f\ncontract Land {\n    struct Landreg {\n        // uint id;\n        // uint area;\n        // string city;\n        // string state;\n        // uint landPrice;\n        // uint propertyPID;\n        uint id;\n        string landAddress;\n        string area;\n        string city;\n        string district;\n        string country;\n        uint landPrice;\n        string propertyID;\n    }\n\n    struct Buyer {\n        address id;\n        string name;\n        uint age;\n        string city;\n        string HKID;\n        string email;\n    }\n\n    struct Seller {\n        address id;\n        string name;\n        uint age;\n        string HKID;\n    }\n\n    struct LandRequest {\n        uint reqId;\n        address sellerId;\n        address buyerId;\n        uint landId;\n        // bool requestStatus;\n        // bool requested;\n    }\n\n    //key value pairs\n    mapping(uint => Landreg) public lands;\n    mapping(address => Seller) public SellerMapping;\n    mapping(address => Buyer) public BuyerMapping;\n    mapping(uint => LandRequest) public RequestsMapping;\n\n    // New mapping to track unique property IDs\n    mapping(string => bool) private propertyIDExists;\n\n    mapping(address => bool) public RegisteredAddressMapping;\n    mapping(address => bool) public RegisteredSellerMapping;\n    mapping(address => bool) public RegisteredBuyerMapping;\n    mapping(uint => address) public LandOwner;\n    mapping(uint => bool) public RequestStatus;\n    mapping(uint => bool) public RequestedLands;\n    mapping(uint => bool) public PaymentReceived;\n\n    // address public Land_Inspector;\n    address[] public sellers;\n    address[] public buyers;\n\n    uint public landsCount;\n    // uint public inspectorsCount;\n    uint public sellersCount;\n    uint public buyersCount;\n    uint public requestsCount;\n\n    event Registration(address _registrationId);\n    event AddingLand(uint indexed _landId);\n    event Landrequested(address _sellerId);\n    event requestApproved(address _buyerId);\n    event LandOwnershipTransferred(uint indexed landId, address indexed seller, address indexed buyer);\n\n    function getLandsCount() public view returns (uint) {\n        return landsCount;\n    }\n\n    function getBuyersCount() public view returns (uint) {\n        return buyersCount;\n    }\n\n    function getSellersCount() public view returns (uint) {\n        return sellersCount;\n    }\n\n    function getRequestsCount() public view returns (uint) {\n        return requestsCount;\n    }\n    function getArea(uint i) public view returns (string memory) {\n        return lands[i].area;\n    }\n    function getCity(uint i) public view returns (string memory) {\n        return lands[i].city;\n    }\n    function getDistrict(uint i) public view returns (string memory) {\n        return lands[i].district;\n    }\n    // function getState(uint i) public view returns (string memory) {\n    //     return lands[i].state;\n    // }\n    function getPrice(uint i) public view returns (uint) {\n        return lands[i].landPrice;\n    }\n    function getPID(uint i) public view returns (string memory) {\n        return lands[i].propertyID;\n    }\n\n    function getLandOwner(uint id) public view returns (address) {\n        return LandOwner[id];\n    }\n\n    function isSeller(address _id) public view returns (bool) {\n        if (RegisteredSellerMapping[_id]) {\n            return true;\n        }\n    }\n\n    function isBuyer(address _id) public view returns (bool) {\n        if (RegisteredBuyerMapping[_id]) {\n            return true;\n        }\n    }\n    function isRegistered(address _id) public view returns (bool) {\n        if (RegisteredAddressMapping[_id]) {\n            return true;\n        }\n    }\n\n    // uint id;\n    //     string landAddress;\n    //     string area;\n    //     string city;\n    //     string district;\n    //     string country;\n    //     uint landPrice;\n    //     string propertyID;\n\n    function addLand(\n        string memory _landAddress,\n        string memory _area,\n        string memory _city,\n        string memory _district,\n        string memory _country,\n        uint _landPrice,\n        string memory _propertyID\n    ) public {\n        require(isSeller(msg.sender), \"Only sellers can add lands.\");\n        require(\n            !propertyIDExists[_propertyID],\n            \"Property ID is already registered.\"\n        );\n\n        landsCount++;\n        lands[landsCount] = Landreg(\n            landsCount,\n            _landAddress,\n            _area,\n            _city,\n            _district,\n            _country,\n            _landPrice,\n            _propertyID\n        );\n        RequestStatus[landsCount] = false;\n        RequestedLands[landsCount] = false;\n        LandOwner[landsCount] = msg.sender;\n        propertyIDExists[_propertyID] = true; // Mark this property ID as registered\n\n        // emit AddingLand(landsCount);\n    }\n\n    function getLandDetails(\n        uint _landId\n    )\n        public\n        view\n        returns (\n            uint,\n            string memory,\n            string memory,\n            string memory,\n            string memory,\n            string memory,\n            uint,\n            string memory\n        )\n    {\n        require(\n            _landId > 0 && _landId <= landsCount,\n            \"Land ID is out of bounds\"\n        );\n\n        Landreg memory land = lands[_landId];\n        return (\n            land.id,\n            land.landAddress,\n            land.area,\n            land.city,\n            land.district,\n            land.country,\n            land.landPrice,\n            land.propertyID\n        );\n    }\n\n    //registration of seller\n    function registerSeller(\n        string memory _name,\n        uint _age,\n        string memory _HKID\n    ) public {\n        //require that Seller is not already registered\n        require(!RegisteredAddressMapping[msg.sender]);\n\n        RegisteredAddressMapping[msg.sender] = true;\n        RegisteredSellerMapping[msg.sender] = true;\n        sellersCount++;\n        SellerMapping[msg.sender] = Seller(\n            msg.sender,\n            _name,\n            _age,\n            _HKID\n        );\n        sellers.push(msg.sender);\n        emit Registration(msg.sender);\n    }\n\n    function updateSeller(\n        string memory _name,\n        uint _age,\n        string memory _HKID\n    ) public {\n        //require that Seller is already registered\n        require(\n            RegisteredAddressMapping[msg.sender] &&\n                (SellerMapping[msg.sender].id == msg.sender)\n        );\n\n        SellerMapping[msg.sender].name = _name;\n        SellerMapping[msg.sender].age = _age;\n        SellerMapping[msg.sender].HKID = _HKID;\n    }\n\n    function getSeller() public view returns (address[] memory) {\n        return (sellers);\n    }\n\n    function getSellerDetails(\n        address i\n    ) public view returns (string memory, uint, string memory) {\n        return (\n            SellerMapping[i].name,\n            SellerMapping[i].age,\n            SellerMapping[i].HKID\n        );\n    }\n\n    function registerBuyer(\n        string memory _name,\n        uint _age,\n        string memory _city,\n        string memory _HKID,\n        string memory _email\n    ) public {\n        //require that Buyer is not already registered\n        require(!RegisteredAddressMapping[msg.sender]);\n\n        RegisteredAddressMapping[msg.sender] = true;\n        RegisteredBuyerMapping[msg.sender] = true;\n        buyersCount++;\n        BuyerMapping[msg.sender] = Buyer(\n            msg.sender,\n            _name,\n            _age,\n            _city,\n            _HKID,\n            _email\n        );\n        buyers.push(msg.sender);\n\n        emit Registration(msg.sender);\n    }\n\n    function updateBuyer(\n        string memory _name,\n        uint _age,\n        string memory _city,\n        string memory _email,\n        string memory _HKID\n    ) public {\n        //require that Buyer is already registered\n        require(\n            RegisteredAddressMapping[msg.sender] &&\n                (BuyerMapping[msg.sender].id == msg.sender)\n        );\n\n        BuyerMapping[msg.sender].name = _name;\n        BuyerMapping[msg.sender].age = _age;\n        BuyerMapping[msg.sender].city = _city;\n        BuyerMapping[msg.sender].HKID = _HKID;\n        BuyerMapping[msg.sender].email = _email;\n    }\n\n    function getBuyer() public view returns (address[] memory) {\n        return (buyers);\n    }\n\n    function getBuyerDetails(\n        address i\n    )\n        public\n        view\n        returns (\n            string memory,\n            string memory,\n            string memory,\n            uint,\n            string memory\n        )\n    {\n        return (\n            BuyerMapping[i].name,\n            BuyerMapping[i].city,\n            BuyerMapping[i].email,\n            BuyerMapping[i].age,\n            BuyerMapping[i].HKID\n        );\n    }\n\n    function requestLand(address _sellerId, uint _landId) public {\n        require(isBuyer(msg.sender));\n\n        requestsCount++;\n        RequestsMapping[requestsCount] = LandRequest(\n            requestsCount,\n            _sellerId,\n            msg.sender,\n            _landId\n        );\n        RequestStatus[requestsCount] = false;\n        RequestedLands[requestsCount] = true;\n\n        emit Landrequested(_sellerId);\n    }\n\n    function getRequestDetails(\n        uint i\n    ) public view returns (address, address, uint, bool) {\n        return (\n            RequestsMapping[i].sellerId,\n            RequestsMapping[i].buyerId,\n            RequestsMapping[i].landId,\n            RequestStatus[i]\n        );\n    }\n\n    function isRequested(uint _id) public view returns (bool) {\n        if (RequestedLands[_id]) {\n            return true;\n        }\n        else {\n            return false;\n        }\n    }\n\n    function isApproved(uint _id) public view returns (bool) {\n        if (RequestStatus[_id]) {\n            return true;\n        }\n        else {\n            return false;\n        }\n    }\n\n    function approveRequest(uint _reqId) public {\n        require(isSeller(msg.sender));\n\n        RequestStatus[_reqId] = true;\n    }\n\n    function isPaid(uint _landId) public view returns (bool) {\n        if (PaymentReceived[_landId]) {\n            return true;\n        }\n    }\n\n    // function payment(address payable _receiver, uint _landId) public payable {\n    //     PaymentReceived[_landId] = true;\n    //     _receiver.transfer(msg.value);\n    // }\n\n    function payment(address payable _seller, uint _landId) public payable {\n        // require(RequestStatus[_landId], \"The land purchase request is not approved.\");\n        // require(!PaymentReceived[_landId], \"Payment for the land is already received.\");\n        require(LandOwner[_landId] == _seller, \"Seller does not own the land.\");\n        require(msg.value == lands[_landId].landPrice, \"Incorrect payment amount.\");\n        require(isBuyer(msg.sender), \"Only registered buyers can make payments.\");\n\n        // Transfer the land price to the seller\n        _seller.transfer(msg.value);\n\n        // Update the land ownership\n        LandOwner[_landId] = msg.sender;\n\n        // Mark the payment as received\n        PaymentReceived[_landId] = true;\n\n        // Additional logic can be added here if needed, like updating the land registry\n        // to indicate the land is no longer available for sale, etc.\n\n        // Emit an event, if you have one for successful payment/transfer\n        emit LandOwnershipTransferred(_landId, _seller, msg.sender);\n    }\n}\n",
  "sourcePath": "/Users/abdur8606/Desktop/Land DAPP/land-dapp/web3/contracts/Land.sol",
  "compiler": {
    "name": "solc",
    "version": "0.5.17+commit.d19bba13.Emscripten.clang"
  },
  "schemaVersion": "3.4.16",
  "updatedAt": "2024-03-27T19:35:27.105Z",
  "networkType": "ethereum",
  "devdoc": {
    "methods": {}
  },
  "userdoc": {
    "methods": {}
  }
}